{
  "_format": "hh-sol-artifact-1",
  "contractName": "CrowdFunding",
  "sourceName": "contracts/CrowdFunding.sol",
  "abi": [
    {
      "inputs": [],
      "stateMutability": "nonpayable",
      "type": "constructor"
    },
    {
      "anonymous": false,
      "inputs": [
        {
          "indexed": false,
          "internalType": "uint256",
          "name": "id",
          "type": "uint256"
        },
        {
          "indexed": false,
          "internalType": "string",
          "name": "actionType",
          "type": "string"
        },
        {
          "indexed": true,
          "internalType": "address",
          "name": "executor",
          "type": "address"
        },
        {
          "indexed": false,
          "internalType": "uint256",
          "name": "timestamp",
          "type": "uint256"
        }
      ],
      "name": "Action",
      "type": "event"
    },
    {
      "inputs": [
        {
          "internalType": "uint256",
          "name": "",
          "type": "uint256"
        }
      ],
      "name": "campaigns",
      "outputs": [
        {
          "internalType": "address",
          "name": "owner",
          "type": "address"
        },
        {
          "internalType": "string",
          "name": "name",
          "type": "string"
        },
        {
          "internalType": "string",
          "name": "category",
          "type": "string"
        },
        {
          "internalType": "string",
          "name": "title",
          "type": "string"
        },
        {
          "internalType": "string",
          "name": "description",
          "type": "string"
        },
        {
          "internalType": "uint256",
          "name": "target",
          "type": "uint256"
        },
        {
          "internalType": "uint256",
          "name": "deadline",
          "type": "uint256"
        },
        {
          "internalType": "uint256",
          "name": "amountCollected",
          "type": "uint256"
        },
        {
          "internalType": "string",
          "name": "image",
          "type": "string"
        }
      ],
      "stateMutability": "view",
      "type": "function"
    },
    {
      "inputs": [
        {
          "internalType": "string",
          "name": "_name",
          "type": "string"
        },
        {
          "internalType": "string",
          "name": "_title",
          "type": "string"
        },
        {
          "internalType": "string",
          "name": "_category",
          "type": "string"
        },
        {
          "internalType": "string",
          "name": "_description",
          "type": "string"
        },
        {
          "internalType": "uint256",
          "name": "_target",
          "type": "uint256"
        },
        {
          "internalType": "uint256",
          "name": "_deadline",
          "type": "uint256"
        },
        {
          "internalType": "string",
          "name": "_image",
          "type": "string"
        }
      ],
      "name": "createCampaign",
      "outputs": [
        {
          "internalType": "uint256",
          "name": "",
          "type": "uint256"
        }
      ],
      "stateMutability": "nonpayable",
      "type": "function"
    },
    {
      "inputs": [
        {
          "internalType": "uint256",
          "name": "_id",
          "type": "uint256"
        }
      ],
      "name": "deleteCampaign",
      "outputs": [
        {
          "internalType": "bool",
          "name": "",
          "type": "bool"
        }
      ],
      "stateMutability": "nonpayable",
      "type": "function"
    },
    {
      "inputs": [
        {
          "internalType": "uint256",
          "name": "_id",
          "type": "uint256"
        }
      ],
      "name": "donateToCampaign",
      "outputs": [],
      "stateMutability": "payable",
      "type": "function"
    },
    {
      "inputs": [],
      "name": "getCampaigns",
      "outputs": [
        {
          "components": [
            {
              "internalType": "address",
              "name": "owner",
              "type": "address"
            },
            {
              "internalType": "string",
              "name": "name",
              "type": "string"
            },
            {
              "internalType": "string",
              "name": "category",
              "type": "string"
            },
            {
              "internalType": "string",
              "name": "title",
              "type": "string"
            },
            {
              "internalType": "string",
              "name": "description",
              "type": "string"
            },
            {
              "internalType": "uint256",
              "name": "target",
              "type": "uint256"
            },
            {
              "internalType": "uint256",
              "name": "deadline",
              "type": "uint256"
            },
            {
              "internalType": "uint256",
              "name": "amountCollected",
              "type": "uint256"
            },
            {
              "internalType": "string",
              "name": "image",
              "type": "string"
            },
            {
              "internalType": "address[]",
              "name": "donators",
              "type": "address[]"
            },
            {
              "internalType": "uint256[]",
              "name": "donations",
              "type": "uint256[]"
            }
          ],
          "internalType": "struct CrowdFunding.Campaign[]",
          "name": "",
          "type": "tuple[]"
        }
      ],
      "stateMutability": "view",
      "type": "function"
    },
    {
      "inputs": [
        {
          "internalType": "uint256",
          "name": "_id",
          "type": "uint256"
        }
      ],
      "name": "getDonators",
      "outputs": [
        {
          "internalType": "address[]",
          "name": "",
          "type": "address[]"
        },
        {
          "internalType": "uint256[]",
          "name": "",
          "type": "uint256[]"
        }
      ],
      "stateMutability": "view",
      "type": "function"
    },
    {
      "inputs": [],
      "name": "manager",
      "outputs": [
        {
          "internalType": "address",
          "name": "",
          "type": "address"
        }
      ],
      "stateMutability": "view",
      "type": "function"
    },
    {
      "inputs": [],
      "name": "numberOfCampaigns",
      "outputs": [
        {
          "internalType": "uint256",
          "name": "",
          "type": "uint256"
        }
      ],
      "stateMutability": "view",
      "type": "function"
    },
    {
      "inputs": [
        {
          "internalType": "uint256",
          "name": "_id",
          "type": "uint256"
        },
        {
          "internalType": "string",
          "name": "_name",
          "type": "string"
        },
        {
          "internalType": "string",
          "name": "_title",
          "type": "string"
        },
        {
          "internalType": "string",
          "name": "_category",
          "type": "string"
        },
        {
          "internalType": "string",
          "name": "_description",
          "type": "string"
        },
        {
          "internalType": "uint256",
          "name": "_target",
          "type": "uint256"
        },
        {
          "internalType": "uint256",
          "name": "_deadline",
          "type": "uint256"
        },
        {
          "internalType": "string",
          "name": "_image",
          "type": "string"
        }
      ],
      "name": "updateCampaign",
      "outputs": [
        {
          "internalType": "bool",
          "name": "",
          "type": "bool"
        }
      ],
      "stateMutability": "nonpayable",
      "type": "function"
    },
    {
      "inputs": [
        {
          "internalType": "uint256",
          "name": "_id",
          "type": "uint256"
        }
      ],
      "name": "withdrawDonations",
      "outputs": [
        {
          "internalType": "bool",
          "name": "",
          "type": "bool"
        }
      ],
      "stateMutability": "nonpayable",
      "type": "function"
    }
  ],
  "bytecode": "0x608060405234801561001057600080fd5b50600080546001600160a01b03191633179055611f39806100326000396000f3fe6080604052600436106100915760003560e01c806342a4fda81161005957806342a4fda814610172578063481c6a7514610187578063549a7a35146101bf57806375970193146101df578063a6b03633146101ff57600080fd5b806307ca140d146100965780630fa91fa9146100bf578063141961bc146100ed578063346dfdb914610122578063388a7ec114610152575b600080fd5b3480156100a257600080fd5b506100ac60025481565b6040519081526020015b60405180910390f35b3480156100cb57600080fd5b506100df6100da36600461169b565b610221565b6040516100b69291906116b4565b3480156100f957600080fd5b5061010d61010836600461169b565b6102f2565b6040516100b69998979695949392919061177e565b34801561012e57600080fd5b5061014261013d3660046118b9565b6105ec565b60405190151581526020016100b6565b34801561015e57600080fd5b5061014261016d36600461169b565b610830565b61018561018036600461169b565b6109e9565b005b34801561019357600080fd5b506000546101a7906001600160a01b031681565b6040516001600160a01b0390911681526020016100b6565b3480156101cb57600080fd5b506100ac6101da3660046119a8565b610b03565b3480156101eb57600080fd5b506101426101fa36600461169b565b610c13565b34801561020b57600080fd5b50610214610e90565b6040516100b69190611b01565b60008181526001602090815260409182902060098101805484518185028101850190955280855260609485949293600a01929091849183018282801561029057602002820191906000526020600020905b81546001600160a01b03168152600190910190602001808311610272575b50505050509150808054806020026020016040519081016040528092919081815260200182805480156102e257602002820191906000526020600020905b8154815260200190600101908083116102ce575b5050505050905091509150915091565b6001602081905260009182526040909120805491810180546001600160a01b039093169261031f90611c47565b80601f016020809104026020016040519081016040528092919081815260200182805461034b90611c47565b80156103985780601f1061036d57610100808354040283529160200191610398565b820191906000526020600020905b81548152906001019060200180831161037b57829003601f168201915b5050505050908060020180546103ad90611c47565b80601f01602080910402602001604051908101604052809291908181526020018280546103d990611c47565b80156104265780601f106103fb57610100808354040283529160200191610426565b820191906000526020600020905b81548152906001019060200180831161040957829003601f168201915b50505050509080600301805461043b90611c47565b80601f016020809104026020016040519081016040528092919081815260200182805461046790611c47565b80156104b45780601f10610489576101008083540402835291602001916104b4565b820191906000526020600020905b81548152906001019060200180831161049757829003601f168201915b5050505050908060040180546104c990611c47565b80601f01602080910402602001604051908101604052809291908181526020018280546104f590611c47565b80156105425780601f1061051757610100808354040283529160200191610542565b820191906000526020600020905b81548152906001019060200180831161052557829003601f168201915b50505050509080600501549080600601549080600701549080600801805461056990611c47565b80601f016020809104026020016040519081016040528092919081815260200182805461059590611c47565b80156105e25780601f106105b7576101008083540402835291602001916105e2565b820191906000526020600020905b8154815290600101906020018083116105c557829003601f168201915b5050505050905089565b60008881526001602052604081205489906001600160a01b0316331461064a5760405162461bcd60e51b815260206004820152600e60248201526d139bdd08105d5d1a1bdc9a5cd95960921b60448201526064015b60405180910390fd5b60008a8152600160205260409020610664426103e8611c91565b85116106b25760405162461bcd60e51b815260206004820181905260248201527f446561646c696e652073686f756c6420626520696e20746865206675747572656044820152606401610641565b600086116107125760405162461bcd60e51b815260206004820152602760248201527f54617267657420616d6f756e74206d7573742062652067726561746572207468604482015266616e207a65726f60c81b6064820152608401610641565b80546001600160a01b03166107635760405162461bcd60e51b815260206004820152601760248201527610d85b5c185a59db88191bd95cc81b9bdd08195e1a5cdd604a1b6044820152606401610641565b600181016107718b82611cfc565b50600381016107808a82611cfc565b506002810161078f8982611cfc565b506004810161079e8882611cfc565b506005810186905560068101859055600881016107bb8582611cfc565b50604080518c81526060602082018190526010908201526f10d85b5c185a59db881d5c19185d195960821b60808201524281830152905133917faee8e5d3bbb2f71a951b5632cee20f7ac487b9f8ab4f66a236f7694b13af7c6a919081900360a00190a25060019a9950505050505050505050565b60008181526001602052604081205482906001600160a01b031633146108895760405162461bcd60e51b815260206004820152600e60248201526d139bdd08105d5d1a1bdc9a5cd95960921b6044820152606401610641565b600083815260016020526040902060068101546108a8426103e8611c91565b10156109025760405162461bcd60e51b815260206004820152602360248201527f43616e6e6f74207769746864726177206265666f72652074686520646561646c604482015262696e6560e81b6064820152608401610641565b47816007015411156109565760405162461bcd60e51b815260206004820152601d60248201527f496e73756666696369656e7420636f6e74726163742062616c616e63650000006044820152606401610641565b80546007820154610970916001600160a01b03169061144e565b6000600782015560408051858152606060208201819052600f908201526e233ab73239902bb4ba34323930bbb760891b6080820152429181019190915233907faee8e5d3bbb2f71a951b5632cee20f7ac487b9f8ab4f66a236f7694b13af7c6a9060a0015b60405180910390a260019250505b50919050565b3480610a485760405162461bcd60e51b815260206004820152602860248201527f416d6f756e7420646f6e61746564206d7573742062652067726561746572207460448201526768616e207a65726f60c01b6064820152608401610641565b6000828152600160205260409020610a62426103e8611c91565b816006015411610aa75760405162461bcd60e51b815260206004820152601060248201526f111958591b1a5b99481c995858da195960821b6044820152606401610641565b600981018054600181810183556000928352602080842090920180546001600160a01b03191633179055600a840180549182018155835290822001839055600782018054849290610af9908490611dbc565b9091555050505050565b6000610b11426103e8611c91565b8311610b5f5760405162461bcd60e51b815260206004820181905260248201527f446561646c696e652073686f756c6420626520696e20746865206675747572656044820152606401610641565b600254600090815260016020819052604090912080546001600160a01b03191633178155908101610b908a82611cfc565b5060038101610b9f8982611cfc565b5060028101610bae8882611cfc565b5060048101610bbd8782611cfc565b5060058101859055600681018490556000600782015560088101610be18482611cfc565b5060028054906000610bf283611dcf565b91905055506001600254610c069190611de8565b9998505050505050505050565b600081815260016020526040812080546001600160a01b0316610c725760405162461bcd60e51b815260206004820152601760248201527610d85b5c185a59db88191bd95cc81b9bdd08195e1a5cdd604a1b6044820152606401610641565b600781015415610c8557610c8583611527565b60006001600254610c969190611de8565b9050808414610d7c5760008181526001602081905260408083208784529220825481546001600160a01b0319166001600160a01b039091161781559081810190610ce290840182611dfb565b50600281810190610cf590840182611dfb565b50600381810190610d0890840182611dfb565b50600481810190610d1b90840182611dfb565b5060058201548160050155600682015481600601556007820154816007015560088201816008019081610d4e9190611dfb565b5060098281018054610d6392840191906115df565b50600a8281018054610d7892840191906115df565b5050505b6000818152600160208190526040822080546001600160a01b03191681559190610da89083018261162f565b610db660028301600061162f565b610dc460038301600061162f565b610dd260048301600061162f565b600582016000905560068201600090556007820160009055600882016000610dfa919061162f565b610e0860098301600061166c565b610e16600a8301600061166c565b505060028054906000610e2883611ed6565b9091555050604080518581526060602082018190526010908201526f10d85b5c185a59db8811195b195d195960821b6080820152429181019190915233907faee8e5d3bbb2f71a951b5632cee20f7ac487b9f8ab4f66a236f7694b13af7c6a9060a0016109d5565b60606000805b600254811015610f1957600081815260016020526040902080546001600160a01b031615801590610ed757506000816001018054610ed390611c47565b9050115b8015610ef357506000816003018054610eef90611c47565b9050115b15610f065782610f0281611dcf565b9350505b5080610f1181611dcf565b915050610e96565b5060008167ffffffffffffffff811115610f3557610f35611816565b604051908082528060200260200182016040528015610fcc57816020015b610fb960405180610160016040528060006001600160a01b03168152602001606081526020016060815260200160608152602001606081526020016000815260200160008152602001600081526020016060815260200160608152602001606081525090565b815260200190600190039081610f535790505b5090506000805b60025481101561144557600081815260016020526040902080546001600160a01b0316158015906110145750600081600101805461101090611c47565b9050115b80156110305750600081600301805461102c90611c47565b9050115b156114325760408051610160810190915281546001600160a01b031681526001820180548391602084019161106490611c47565b80601f016020809104026020016040519081016040528092919081815260200182805461109090611c47565b80156110dd5780601f106110b2576101008083540402835291602001916110dd565b820191906000526020600020905b8154815290600101906020018083116110c057829003601f168201915b505050505081526020016002820180546110f690611c47565b80601f016020809104026020016040519081016040528092919081815260200182805461112290611c47565b801561116f5780601f106111445761010080835404028352916020019161116f565b820191906000526020600020905b81548152906001019060200180831161115257829003601f168201915b5050505050815260200160038201805461118890611c47565b80601f01602080910402602001604051908101604052809291908181526020018280546111b490611c47565b80156112015780601f106111d657610100808354040283529160200191611201565b820191906000526020600020905b8154815290600101906020018083116111e457829003601f168201915b5050505050815260200160048201805461121a90611c47565b80601f016020809104026020016040519081016040528092919081815260200182805461124690611c47565b80156112935780601f1061126857610100808354040283529160200191611293565b820191906000526020600020905b81548152906001019060200180831161127657829003601f168201915b505050505081526020016005820154815260200160068201548152602001600782015481526020016008820180546112ca90611c47565b80601f01602080910402602001604051908101604052809291908181526020018280546112f690611c47565b80156113435780601f1061131857610100808354040283529160200191611343565b820191906000526020600020905b81548152906001019060200180831161132657829003601f168201915b50505050508152602001600982018054806020026020016040519081016040528092919081815260200182805480156113a557602002820191906000526020600020905b81546001600160a01b03168152600190910190602001808311611387575b50505050508152602001600a82018054806020026020016040519081016040528092919081815260200182805480156113fd57602002820191906000526020600020905b8154815260200190600101908083116113e9575b50505050508152505084848151811061141857611418611eed565b6020026020010181905250828061142e90611dcf565b9350505b508061143d81611dcf565b915050610fd3565b50909392505050565b6000811161148d5760405162461bcd60e51b815260206004820152600c60248201526b043616e27742073656e6420360a41b6044820152606401610641565b6000826001600160a01b03168260405160006040518083038185875af1925050503d80600081146114da576040519150601f19603f3d011682016040523d82523d6000602084013e6114df565b606091505b50509050806115225760405162461bcd60e51b815260206004820152600f60248201526e151c985b9cd9995c8819985a5b1959608a1b6044820152606401610641565b505050565b6000818152600160205260408120905b600982015481101561152257600082600901828154811061155a5761155a611eed565b6000918252602082200154600a850180546001600160a01b039092169350908490811061158957611589611eed565b90600052602060002001549050600084600a0184815481106115ad576115ad611eed565b600091825260208220019190915560078501556115ca828261144e565b505080806115d790611dcf565b915050611537565b82805482825590600052602060002090810192821561161f5760005260206000209182015b8281111561161f578254825591600101919060010190611604565b5061162b929150611686565b5090565b50805461163b90611c47565b6000825580601f1061164b575050565b601f0160209004906000526020600020908101906116699190611686565b50565b508054600082559060005260206000209081019061166991905b5b8082111561162b5760008155600101611687565b6000602082840312156116ad57600080fd5b5035919050565b604080825283519082018190526000906020906060840190828701845b828110156116f65781516001600160a01b0316845292840192908401906001016116d1565b5050508381038285015284518082528583019183019060005b8181101561172b5783518352928401929184019160010161170f565b5090979650505050505050565b6000815180845260005b8181101561175e57602081850181015186830182015201611742565b506000602082860101526020601f19601f83011685010191505092915050565b6001600160a01b038a168152610120602082018190526000906117a38382018c611738565b905082810360408401526117b7818b611738565b905082810360608401526117cb818a611738565b905082810360808401526117df8189611738565b90508660a08401528560c08401528460e08401528281036101008401526118068185611738565b9c9b505050505050505050505050565b634e487b7160e01b600052604160045260246000fd5b600082601f83011261183d57600080fd5b813567ffffffffffffffff8082111561185857611858611816565b604051601f8301601f19908116603f0116810190828211818310171561188057611880611816565b8160405283815286602085880101111561189957600080fd5b836020870160208301376000602085830101528094505050505092915050565b600080600080600080600080610100898b0312156118d657600080fd5b88359750602089013567ffffffffffffffff808211156118f557600080fd5b6119018c838d0161182c565b985060408b013591508082111561191757600080fd5b6119238c838d0161182c565b975060608b013591508082111561193957600080fd5b6119458c838d0161182c565b965060808b013591508082111561195b57600080fd5b6119678c838d0161182c565b955060a08b0135945060c08b0135935060e08b013591508082111561198b57600080fd5b506119988b828c0161182c565b9150509295985092959890939650565b600080600080600080600060e0888a0312156119c357600080fd5b873567ffffffffffffffff808211156119db57600080fd5b6119e78b838c0161182c565b985060208a01359150808211156119fd57600080fd5b611a098b838c0161182c565b975060408a0135915080821115611a1f57600080fd5b611a2b8b838c0161182c565b965060608a0135915080821115611a4157600080fd5b611a4d8b838c0161182c565b955060808a0135945060a08a0135935060c08a0135915080821115611a7157600080fd5b50611a7e8a828b0161182c565b91505092959891949750929550565b600081518084526020808501945080840160005b83811015611ac65781516001600160a01b031687529582019590820190600101611aa1565b509495945050505050565b600081518084526020808501945080840160005b83811015611ac657815187529582019590820190600101611ae5565b60006020808301818452808551808352604092508286019150828160051b87010184880160005b83811015611c3957888303603f19018552815180516001600160a01b0316845261016088820151818a870152611b6082870182611738565b9150508782015185820389870152611b788282611738565b91505060608083015186830382880152611b928382611738565b9250505060808083015186830382880152611bad8382611738565b9250505060a080830151818701525060c080830151818701525060e08083015181870152506101008083015186830382880152611bea8382611738565b925050506101208083015186830382880152611c068382611a8d565b925050506101408083015192508582038187015250611c258183611ad1565b968901969450505090860190600101611b28565b509098975050505050505050565b600181811c90821680611c5b57607f821691505b6020821081036109e357634e487b7160e01b600052602260045260246000fd5b634e487b7160e01b600052601160045260246000fd5b8082028115828204841417611ca857611ca8611c7b565b92915050565b601f82111561152257600081815260208120601f850160051c81016020861015611cd55750805b601f850160051c820191505b81811015611cf457828155600101611ce1565b505050505050565b815167ffffffffffffffff811115611d1657611d16611816565b611d2a81611d248454611c47565b84611cae565b602080601f831160018114611d5f5760008415611d475750858301515b600019600386901b1c1916600185901b178555611cf4565b600085815260208120601f198616915b82811015611d8e57888601518255948401946001909101908401611d6f565b5085821015611dac5787850151600019600388901b60f8161c191681555b5050505050600190811b01905550565b80820180821115611ca857611ca8611c7b565b600060018201611de157611de1611c7b565b5060010190565b81810381811115611ca857611ca8611c7b565b818103611e06575050565b611e108254611c47565b67ffffffffffffffff811115611e2857611e28611816565b611e3681611d248454611c47565b6000601f821160018114611e6a5760008315611e525750848201545b600019600385901b1c1916600184901b178455611ecf565b600085815260209020601f19841690600086815260209020845b83811015611ea45782860154825560019586019590910190602001611e84565b5085831015611ec25781850154600019600388901b60f8161c191681555b50505060018360011b0184555b5050505050565b600081611ee557611ee5611c7b565b506000190190565b634e487b7160e01b600052603260045260246000fdfea264697066735822122036bf19d934d2291dd8c72b6b20bd7f333a4ec59e48e3449628db6d4a9f003d3864736f6c63430008110033",
  "linkReferences": {},
  "deployedLinkReferences": {}
}